S01C00004D656D6F72795F696E746572666163655F6170702E73726563DF
S11300000C9435000C9452000C9452000C94520041
S11300100C9452000C9452000C9452000C94880AD4
S11300200C9452000C9452000C9452000C94520004
S11300300C9452000C9452000C9452000C945200F4
S11300400C9452000C9463030C9452000C945200D0
S11300500C945200FC072D08030800090C09A2089F
S11300604C08DF088A082208F70811241FBECFE5D0
S1130070D8E0DEBFCDBF11E0A0E6B0E0E2E6FDE1EE
S113008002C005900D92A432B107D9F724E0A4E28E
S1130090B1E001C01D92A930B207E1F70E940E063B
S11300A00C94AF0E0C9400001092270110922601BC
S11300B010922501089581E080932601089581E03E
S11300C0809325010895CF93DF9300D000D0CDB75E
S11300D0DEB7809127018130A9F018F08230E9F170
S11300E044C060E0CE0101960E942D0189818130D7
S11300F0E1F564E271E080E00E94BB0781E0809357
S1130100270133C080912501813079F510922501B2
S1130110809124018F5F809324010E94590560E03F
S113012080E00E944E0560E080E00E944E058091D0
S113013024014AE0BE016F5F7F4F90E00E947A0E77
S1130140CE0101960E945D0564E271E080E00E94A8
S1130150D40782E08093270108C080912601813072
S113016021F410922601109227010F900F900F9006
S11301700F90DF91CF91089510922B0110922A01D4
S113018010922901089581E080932A01089581E065
S1130190809329010895CF93DF9300D000D0CDB789
S11301A0DEB780912B018130B1F020F0823009F468
S11301B03FC046C061E0CE0101960E942D018981B5
S11301C08130F1F568E271E00E94BB0784BD81E0F3
S11301D080932B0135C080912901813089F580E11C
S11301E084BD10922901809128018F5F809328019A
S11301F061E080E00E944E050E94590561E080E0C4
S11302000E944E05809128014AE0BE016F5F7F4F36
S113021090E00E947A0ECE0101960E945D0568E28C
S113022071E081E00E94D40782E080932B0108C032
S113023080912A01813021F410922A0110922B011D
S11302400F900F900F900F90DF91CF910895EFE2F0
S1130250F1E01082118212820895E62FF0E0E15D50
S1130260FE4F2081FC0120830895B0990EC0809137
S11302702E018F5F833019F080932E010AC01092F3
S11302802E0181E080932F0104C010922E01109260
S11302902F01B1990EC080912D018F5F833019F029
S11302A080932D010AC010922D0181E080933001CA
S11302B004C010922D0110923001B2990EC08091A9
S11302C02C018F5F833019F080932C0108951092D4
S11302D02C0181E080933101089510922C01109239
S11302E031010895CF93DF93ABE7B0E02BEA30E020
S11302F01196EC911197F0E0E958FF4FE081F0E09E
S1130300EF019A914C91842F80959823988358817A
S113031012969C9112979423952B9883908189230C
S11303208083908113968C9113978423892B8083E7
S11303301496A217B307E1F6DF91CF91089524E054
S1130340829FC0011124DC01A558BF4F1196EC9186
S11303501197F0E0E958FF4FE081F0E090812C9193
S1130360822F809589236223682B6083089588EC0B
S113037080933701109236011092350110923401A6
S113038088E08093330186E1809332010895982FA9
S1130390849F802D11248138B8F481E061157105A2
S11303A009F080E0811113C020913301283071F4E9
S11303B04093360190933701709335016093340173
S11303C097E090933301089581E0089582E00895C1
S11303D0982F849F802D11248138B8F481E0611511
S11303E0710509F080E0811113C020913301283098
S11303F071F4409336019093370170933501609303
S1130400340196E090933301089581E0089582E0E9
S11304100895809160008C3009F453C028F48A3028
S113042051F08B30D9F108958E3089F008F45CC016
S11304308F30E9F0089580913301883021F08EE007
S11304408093600008958AE080936000089541E0FD
S113045067E371E080EA0E940004811104C08FE028
S11304608093600008958EE08093600008958091E9
S11304703201843179F480913301863021F48BE0A8
S1130480809360000895873009F050C08CE0809319
S1130490600008958FE080936000089560913401B6
S11304A0709135014091360180EA0E942204811145
S11304B004C08DE08093600008958BE08093600019
S11304C0089560913401709135014091360180EABC
S11304D00E940004811104C08DE08093600008959F
S11304E08CE0809360000895809132018531D9F4C5
S11304F08AE08093600086E1809332018091330129
S1130500863031F4E091AD00F091AE00099507C05A
S1130510873029F4E091AB00F091AC00099588E0B4
S11305208093330108958DE0809360000895809155
S11305303201863121F484E18093320108958431BB
S113054019F485E1809332010895E39A81E0809360
S11305504301089561157105B9F090914301992300
S1130560A9F090914101913099F080933F017093EB
S11305703E0160933D0140933A0181E08093420142
S11305808093410180E0089581E0089581E0089519
S113059082E0089561157105C1F09091430199239A
S11305A0B1F0909141019130A1F080933F0170939B
S11305B03C0160933B0140933A0182E08093420105
S11305C081E08093410180E0089581E0089581E015
S11305D0089582E0089580914201823009F444C074
S11305E028F4882369F0813071F00895853009F486
S11305F062C0863009F450C0843009F063C02CC056
S11306001092410108959091390180913A01981313
S113061006C01092390184E0809342010895F89451
S113062080913901E0913D01F0913E01E80FF11D07
S113063080818DBB809139018F5F809339018091D6
S11306403F0190E09FBB8EBBE198E29AE19A83E080
S11306508093420178940895E091AF00F091B00046
S113066009951092420108959091380180913A01C0
S1130670981306C01092380185E0809342010895D2
S113068080913F0190E09FBB8EBBE298E198E09A95
S113069086E080934201089580914001813091F475
S11306A010924001809138018F5F8093380182E07D
S11306B0809342010895E091B100F091B200099550
S11306C01092420108951F920F920FB60F921124B7
S11306D08F939F93EF93FF9380914201982F9D7F77
S11306E0913021F481E0809342010BC0863049F4BB
S11306F08DB3E0913B01F0913C01808381E08093D4
S11307004001FF91EF919F918F910F900FBE0F9039
S11307101F901895CF93DF93EC010E94EE0B20916C
S1130720440130914501C9018C0F9D1F883542E079
S1130730940758F42817390758F4E901CA5BDE4FC7
S1130740909345018093440105C0C0E0D0E002C00D
S1130750C0E0D0E00E94B80CCE01DF91CF910895A3
S113076008950F931F93CF93DF938091B7009091D7
S1130770B8008130910549F030F08230910539F0AC
S1130780039739F007C060E005C061E003C062E090
S113079001C063E0D4E0C62FCD2703EB10E0F801DD
S11307A086819781A085B1859C01AD01220F331FFD
S11307B0441F551FAC2FB0E00E94360E9B01AC01C4
S11307C060817181828193810E940E0E6C2F70E092
S11307D0660F771F80E190E00E94FA0D261B20B976
S11307E011B880E182B9D6BFF801828593859093D0
S11307F09F0380939E03DF91CF911F910F910895E2
S1130800FB014423B1F090E054EA8E7F34E8911167
S113081006C056BF06B607FEFDCF83B903C02191BB
S113082023B9415036BF06B607FEFDCF9F5F411185
S1130830EECFE0919E03F0919F03309709F0099564
S113084080E00895FB014423D9F090E034EC64EA9D
S1130850816054E891110AC066BF06B607FEFDCF59
S113086083B956BF06B607FEFDCF07C036BF06B62E
S113087007FEFDCF23B1219341509F5F4111EACF81
S1130880E0919E03F0919F03309709F0099580E071
S11308900895CF93DF93CDB7DEB728970FB6F894BA
S11308A0DEBF0FBECDBFAB01BC0119821A821B8211
S11308B01C8289819A81AB81BC8184179507A60724
S11308C0B70798F51D821E821F8218868D819E812E
S11308D0AF81B8850497A105B10598F48D819E81F7
S11308E0AF81B8850196A11DB11D8D839E83AF8311
S11308F0B8878D819E81AF81B8850497A105B10524
S113090068F389819A81AB81BC810196A11DB11DD7
S113091089839A83AB83BC8389819A81AB81BC81AF
S113092084179507A607B70768F228960FB6F894B8
S1130930DEBF0FBECDBFDF91CF910895AF92BF92BE
S1130940CF92DF92EF92FF920F931F93CF93DF9397
S113095000D000D0CDB7DEB796E0998397E09A83B4
S113096098E09B8399E09C839E012F5F3F4F790120
S113097000E010E0AA24A394B12CC82ED12CB50118
S1130980002E02C0660F771F0A94E2F76C217D21C6
S1130990002E02C0759567950A94E2F76195F701F8
S11309A081917F010E949F010F5F1F4F0430110549
S11309B031F70F900F900F900F90DF91CF911F910F
S11309C00F91FF90EF90DF90CF90BF90AF9008957C
S11309D06FEF85E00E949F0162E070E080E090E0AC
S11309E00E94490460E085E00E949F0162E070E09B
S11309F080E090E00E9449040895CF93C82F60E0FE
S1130A0083E00E949F0160E084E00E949F018C2F9C
S1130A1082958F700E949E040E94E8046AE070E050
S1130A2080E090E00E9449048C2F8F700E949E0405
S1130A300E94E80464E670E080E090E00E944904CB
S1130A40CF91089583E30E94FD0482E30E94FD0494
S1130A5088E20E94FD048CE00E94FD040895CF9377
S1130A60C82F6FEF83E00E949F0160E084E00E9442
S1130A709F018C2F82958F700E949E040E94E8042F
S1130A808C2F8F700E949E040E94E80462E070E044
S1130A9080E090E00E944904CF910895662329F0F4
S1130AA0613011F4805C01C080E080680E94FD0424
S1130AB0089581E00E94FD040895CF93DF93EC0133
S1130AC08881882331F021960E942F058991811114
S1130AD0FBCFDF91CF910895FC010396928381832C
S1130AE02FEF3FEF34832383968385839087878317
S1130AF010820895FC01118610860895CF93DF9328
S1130B00FC01DB0121813281E9018A819B811396F9
S1130B109C938E9312978181928115969C938E93C8
S1130B2014978A819B81EC017D836C83E9017B832B
S1130B306A83728361831996FC93EE93189780817C
S1130B408F5F8083DF91CF910895CF93DF93EB0183
S1130B50488159814F3F2FEF520731F4DC0117963A
S1130B60ED91FC91189717C0FC013396DC011596A2
S1130B702D913C911697D9012D913C914217530721
S1130B8050F00280F381E02DA281B3812D913C913C
S1130B9042175307B0F7A281B381BB83AA8315968A
S1130BA0DC93CE931497FD83EC83D383C28399871C
S1130BB08887FC0120812F5F2083DF91CF910895E6
S1130BC0FC01A281B3818481958115969C938E93B7
S1130BD01497A481B5818281938113969C938E93FB
S1130BE01297A085B18511968D919C911297E81763
S1130BF0F90731F48481958112969C938E93119711
S1130C00118610868C9181508C93089581E0809395
S1130C10A003089581E08093A10308950E947201C6
S1130C200E94B1030E94A5020E94B7010E94B4066B
S1130C300E9488070E9454000E94BC000E94220562
S1130C400E942701A12CB12CC12CD12CE12CF12C18
S1130C5002E020E030E048EC50E060E070E085EA3B
S1130C6096E00E94C20A0E94C30BFFCFCF93DF938A
S1130C701F92CDB7DEB78091A203813099F030F096
S1130C80823089F1833009F448C05BC00E94590561
S1130C908FEB90E00E945D050E94940781E08093B1
S1130CA0A2034FC08091A103813009F04AC0109281
S1130CB0A1030E94590560E080E00E944E058BEC80
S1130CC090E00E945D0561E080E00E944E0587EDA2
S1130CD090E00E945D0560E080E00E944E0582E0A5
S1130CE08093A2032EC00E9435010E9463000E94DB
S1130CF0CB0062E0CE0101960E942D0189818130F2
S1130D0001F50E94590583EE90E00E945D050E9462
S1130D10A70783E08093A20314C08091A0038130CD
S1130D2081F41092A0030E9459058FEE90E00E9476
S1130D305D0561E080E00E944E058EEF90E00E9428
S1130D405D050F90DF91CF91089582E390E00E94BA
S1130D503E0D0E94EB020E9409020E9414070E94A9
S1130D60ED070E943606F1CF1092A8031092A70354
S1130D7085E08093A3031092A6031092A50308951F
S1130D80982F81E06115710509F080E0E091100170
S1130D90F09111012081921729F02481291316C0A2
S1130DA021E001C020E0811114C09091A30395308B
S1130DB079F47093A6036093A5032093A40391E0B0
S1130DC09093A80396E09093A303089581E0089577
S1130DD082E00895982F81E06115710509F080E0A3
S1130DE0E0911001F09111012081921729F02481E2
S1130DF0291316C021E001C020E0811114C0909194
S1130E00A303953079F47093A6036093A50320930C
S1130E10A40391E09093A70396E09093A30308950D
S1130E2081E0089582E008958091A303863009F05B
S1130E3042C08091A403E0911001F091110194E06B
S1130E40899FE00DF11D11248381418122819091BC
S1130E50A803913091F4211107C06091A50370910A
S1130E60A6030E94AA021EC0213011F56091A503B9
S1130E707091A6030E94C70115C09091A7039130F9
S1130E80B9F4211107C06091A5037091A6030E94D3
S1130E90CA0208C0213061F46091A5037091A603D1
S1130EA00E94E801811104C087E08093A3030895A0
S1130EB086E08093A30308951092A80385E08093AD
S1130EC0A303E0911201F091130109950895109282
S1130ED0A70385E08093A303E0911401F091150129
S1130EE0099508951092A80385E08093A303E091E7
S1130EF01201F0911301099508951092A70385E05A
S1130F008093A303E0911401F091150109950895CC
S1130F108091B403813039F081E08093B40310925E
S1130F20B5031092B30308958091B403882359F054
S1130F308091B303813049F081E08093B5038093BD
S1130F40B30380E0089581E0089582E008958091DC
S1130F50B403882361F08091B303813051F082E0BF
S1130F608093B50381E08093B30380E0089581E02A
S1130F70089582E008956115710591F09091B3038D
S1130F80913081F08093B2037093B1036093B00306
S1130F9081E08093B30385E08093B50380E00895F6
S1130FA081E0089582E008956115710591F09091B2
S1130FB0B303913081F08093AF037093AE036093D9
S1130FC0AD0381E08093B30386E08093B50380E0B2
S1130FD0089581E0089582E00895CF93DF93E0912E
S1130FE0B5038E2F90E08B30910508F031C1FC01E0
S1130FF0E65DFF4F0C94300E1092B3031092AA03D7
S11310001092A90325C1E091A903E23021F484E000
S11310108093B5031DC1F0E0EE0FFF1FEE0FFF1F1D
S1131020EE0FFF1FEB59FF4F6281738180810E9495
S1131030C0068091A9038F5F8093A90389E0809300
S1131040B50306C18091AC03813009F001C110924F
S1131050AC0382E08093B503FBC0E091A903E230C6
S113106021F483E08093B503F3C0F0E0EE0FFF1F9B
S1131070EE0FFF1FEE0FFF1FEB59FF4F62817381CD
S113108080810E94EA068091A9038F5F8093A9035F
S11310908AE08093B503DCC01092A9038091AF036A
S11310A0909165009813CCC0A0E0B0E002C0A1E02C
S11310B0B0E01092AA03FD01EE0FFF1FEE0FFF1F19
S11310C0EE0FFF1FEB59FF4F81818823F9F06091E8
S11310D0AD037091AE0320E0DF01EF01229611967B
S11310E0822F90E0FB01E80FF91F3081488159817C
S11310F0FA01E80FF91F30832F5F8C91281780F3D2
S11311002093AA0303C082E08093A90388E080931C
S1131110B5039EC01092B303E091A903F0E0EE0F73
S1131120FF1FEE0FFF1FEE0FFF1FEB59FF4F048051
S1131130F581E02D09951092A9031092AA0310924B
S1131140B50386C01092A9038091B2039091650003
S113115098136EC0A0E0B0E002C0A1E0B0E010922D
S1131160AA03FD01EE0FFF1FEE0FFF1FEE0FFF1F7F
S1131170EB59FF4F81818823F1F04091B0035091E6
S1131180B10320E0DF01EF0122961196822F90E057
S1131190E881F981E80FF91F3081FA01E80FF91F9E
S11311A030832F5F8C91281788F32093AA0303C000
S11311B082E08093A90387E08093B50349C010922D
S11311C0B303E091A903F0E0EE0FFF1FEE0FFF1F42
S11311D0EE0FFF1FEB59FF4F0680F781E02D0995B5
S11311E01092A9031092AA031092B50331C0809102
S11311F0AB03813069F51092AB038093B50328C02B
S11312001092B3031092A903E0916300F09164007B
S113121009951092B5031CC01092B3031092A90350
S1131220E0916100F091620009951092B50310C03D
S113123091E09093A90390916D009813B9CF8DCF4D
S113124091E09093A90390916D0098135CCF2FCFF8
S1131250DF91CF91089581E08093AC03089581E0FC
S11312608093AB03089531E1FC013083319722E28E
S113127020833197A3E3A0833197608331977083F0
S113128031971082319760E86083319710823197EB
S113129062E06083319763E06083319764E0608348
S11312A0319765E06083319766E06083319767E04A
S11312B06083319768E06083319769E06083319798
S11312C060E1608331973083319732E13083319725
S11312D033E13083319734E13083319735E1308322
S11312E0319736E13083319737E13083319738E1F4
S11312F03083319739E13083319730E2308331974D
S113130031E2308331972083319723E22083319770
S1131310408331975083319726E22083319727E227
S11313202083319728E22083319729E22083319763
S113133020E32083319721E32083869708951BBC03
S11313408CE78ABD8BE08EBD89B7806189BFA0918F
S11313500704B0910804CD91CDBFDD91DEBFFF91AC
S1131360EF91DF91CF91BF91AF919F918F917F9139
S11313706F915F914F913F912F911F910F91FF902A
S1131380EF90DF90CF90BF90AF909F908F907F9021
S11313906F905F904F903F902F901F900F900FBED3
S11313A00F90089581E008950F920FB6F8940F926C
S11313B01F9211242F923F924F925F926F927F92CD
S11313C08F929F92AF92BF92CF92DF92EF92FF9251
S11313D00F931F932F933F934F935F936F937F9339
S11313E08F939F93AF93BF93CF93DF93EF93FF9329
S11313F0A0910704B09108040DB60D920EB60D929B
S11314000E948E0DA0910704B0910804CD91CDBF28
S1131410DD91DEBFFF91EF91DF91CF91BF91AF914D
S11314209F918F917F916F915F914F913F912F91F8
S11314301F910F91FF90EF90DF90CF90BF90AF90EE
S11314409F908F907F906F905F904F903F902F90E0
S11314501F900F900FBE0F9008950F920FB6F8943F
S11314600F921F9211242F923F924F925F926F928C
S11314707F928F929F92AF92BF92CF92DF92EF9220
S1131480FF920F931F932F933F934F935F936F9309
S11314907F938F939F93AF93BF93CF93DF93EF93F8
S11314A0FF93A0910704B09108040DB60D920EB6F7
S11314B00D920E94F40B0E948E0DA0910704B0912E
S11314C00804CD91CDBFDD91DEBFFF91EF91DF9197
S11314D0CF91BF91AF919F918F917F916F915F91C8
S11314E04F913F912F911F910F91FF90EF90DF90BB
S11314F0CF90BF90AF909F908F907F906F905F90B0
S11315004F903F902F901F900F900FBE0F90089513
S11315100E942D0A1895CF93DF93EC01E091070404
S1131520F0910804938382838091C0039091C10356
S1131530C817D90768F46091070470910804809172
S1131540D6039091D7036E5F7F4F0E94A50517C005
S113155060910704709108048091D8039091D90395
S11315606E5F7F4F0E94A505809175009091760073
S1131570C817D90720F4D0937600C0937500DF9183
S1131580CF9108954F925F926F927F928F929F9224
S1131590AF92BF92CF92DF92EF92FF920F931F937D
S11315A0CF93DF935C014B013A01290181E290E082
S11315B00E948A03EC01892B09F4D3C0C114D1041D
S11315C009F0CBC0C3010E948A03988F8F8B0097C8
S11315D021F4CE010E94B003C4C0A30165EA70E007
S11315E00E94640E9301215031098F89988D3C012A
S11315F0620E731E48E050E0B401CE0149960E9489
S11316006B0E18A2102F033008F012E01E8B6E012F
S113161082E0C80ED11CC6010E947A05CE010C9648
S11316200E947A05D987C88783E090E0811B9109DD
S11316309D878C87DB8BCA8BA201B501C3010E94F5
S1131640330999838883E114F10419F0F701D183F4
S1131650C0830FB6F8940F928091C2038F5F80937A
S1131660C2038091070490910804892B89F5D093D3
S11316700804C09307048091C2038130C1F58CEE45
S113168093E00E946C0585EF93E00E946C058EEF59
S113169093E00E946C0583EE93E00E946C058AED52
S11316A093E00E946C058DEC93E00E946C0584EC41
S11316B093E00E946C0583EE93E09093D9038093AA
S11316C0D8038AED93E09093D7038093D6030FC099
S11316D08091BD0381110BC0E0910704F0910804CF
S11316E08689081720F0D0930804C09307048E89D4
S11316F09091BF03981710F48093BF039091B8039F
S11317009F5F9093B8039091BE03981710F4809351
S1131710BE0390E09C01220F331F220F331F220FC0
S1131720331F820F931FB60184519C4F0E947E0584
S11317300F900FBE8091BD03882359F0E0910704F8
S1131740F09108048689801730F40E94D40981E05E
S113175009C081E007C081E005C0D88ECF8AC601E8
S11317603CCF8FEFDF91CF911F910F91FF90EF90BE
S1131770DF90CF90BF90AF909F908F907F906F90AD
S11317805F904F900895AF92BF92CF92DF92EF9205
S1131790FF920F93A12CB12CC12CD12CE12CF12C54
S11317A000E020E030E045E550E06EE171E08EE5D8
S11317B09DE00E94C20A813049F4F8948093BD03ED
S11317C01092C1031092C0030E949F090F91FF90D1
S11317D0EF90DF90CF90BF90AF9008958091BC03BD
S11317E08F5F8093BC0308950F931F93CF93DF9370
S11317F08091BC038111B2C08091C0039091C10358
S113180001969093C1038093C0038091C00390918B
S1131810C103892B99F58091D8039091D903209124
S1131820D6033091D7033093D9032093D8039093F0
S1131830D7038093D6038091B9038F5F8093B90354
S1131840E091D803F091D9038081811107C08FEF13
S11318509FEF909376008093750010C0E091D803B9
S1131860F091D9030580F681E02D0680F781E02D03
S11318708281938190937600809375002091C003B8
S11318803091C10380917500909176002817390733
S113189008F469C0E091D803F091D90380818823CA
S11318A099F0E091D803F091D9030580F681E02DF9
S11318B0C681D7818A819B812091C0033091C10365
S11318C028173907F8F419C08FEF9FEF909376002B
S11318D08093750048C0E091D803F091D903058046
S11318E0F681E02DC681D7818A819B812091C00336
S11318F03091C1032817390728F490937600809318
S1131900750031C08E010E5F1F4FC8010E94E005B3
S11319108C899D89892B21F0CE010C960E94E005CB
S11319208E899091BE03981710F48093BE0390E0C3
S11319309C01220F331F220F331F220F331F820FEC
S1131940931FB80184519C4F0E947E05E091D803F7
S1131950F091D90380818111BECFB6CF8091BB03B2
S11319608F5F8093BB03DF91CF911F910F910895F7
S1131970CF92DF92EF92FF920F931F93CF93DF9357
S11319800FB6F8940F928091BC0381508093BC03EE
S11319908091BC03811164C08091C203811132C063
S11319A062C0D7011596ED91FC911697C681D78137
S11319B0CE010C960E94E0058E010E5F1F4FC801F8
S11319C00E94E0058E899091BE03981710F48093CD
S11319D0BE0390E09C01220F331F220F331F220FFE
S11319E0331F820F931FB80184519C4F0E947E05C0
S11319F0E0910704F09108049E898689981758F0AD
S1131A00DC2C09C0D12C0F2EFDECEF2EF3E0FF2EC1
S1131A10F02DCC24C394F70180818111C2CF809131
S1131A20BB03882381F08091BB03882399F00E9433
S1131A30F40B8091BB0381508093BB038091BB0363
S1131A408111F5CF07C0F1E0DF1621F08091BA03D0
S1131A50813041F41092BA030E94D40981E003C09A
S1131A6080E001C080E00F900FBEDF91CF911F9105
S1131A700F91FF90EF90DF90CF900895CF93DF9375
S1131A80EC01892BB1F00E94EE0B8091C003909180
S1131A90C103C80FD91F80910704909108040296CE
S1131AA00E94E005CE010E948B0A0E94B80C8111AD
S1131AB002C00E94D409DF91CF91089504EC13E091
S1131AC08091C3038823E1F30E94EE0BD801CC91EB
S1131AD00E94B80CCC23A1F30FB6F8940F92D8014E
S1131AE01596ED91FC911697C681D781CE01029689
S1131AF00E94E0058091C20381508093C2038091CB
S1131B00C30381508093C3030F900FBE8F89988DB8
S1131B100E94B003CE010E94B003D2CF8091BC03D7
S1131B20811113C08091BE0390E0FC01EE0FFF1FF2
S1131B30EE0FFF1FEE0FFF1F8E0F9F1FFC01E451DE
S1131B40FC4F8081882329F01BC081E08093BA0375
S1131B5008958091BE0381508093BE038091BE039B
S1131B6090E0FC01EE0FFF1FEE0FFF1FEE0FFF1FB3
S1131B708E0F9F1FFC01E451FC4F8081882349F3A1
S1131B808091BE0390E09C01220F331F220F331F6C
S1131B90220F331F280F391FD901A451BC4F1196AE
S1131BA0ED91FC9112970280F381E02D1296FC9343
S1131BB0EE93119721513C4FE217F30729F4228148
S1131BC03381FD0132832183FC01EE0FFF1FEE0FF1
S1131BD0FF1FEE0FFF1F8E0F9F1FFC01E451FC4FF0
S1131BE00180F281E02D868197819093080480938F
S1131BF00704089597FB072E16F4009407D077FD89
S1131C0009D00E94410E07FC05D03EF490958195C1
S1131C109F4F0895709561957F4F0895A1E21A2E04
S1131C20AA1BBB1BFD010DC0AA1FBB1FEE1FFF1F7C
S1131C30A217B307E407F50720F0A21BB30BE40BCC
S1131C40F50B661F771F881F991F1A9469F7609513
S1131C507095809590959B01AC01BD01CF010895CD
S1131C60EE0FFF1F0590F491E02D09940E94550E8C
S1131C70A59F900DB49F900DA49F800D911D1124DC
S1131C800895AA1BBB1B51E107C0AA1FBB1FA617BF
S1131C90B70710F0A61BB70B881F991F5A95A9F711
S1131CA080959095BC01CD010895A29FB001B39F8A
S1131CB0C001A39F700D811D1124911DB29F700D51
S1131CC0811D1124911D0895DC0101C06D934150C3
S1131CD05040E0F70895FB01DC014150504048F0CA
S1131CE001900D920020C9F701C01D92415050404F
S1131CF0E0F70895BB274A3031F4992322F4BDE27A
S1131D00909581959F4F0C94860EBB27FB01552718
S1131D10AA27880F991FAA1FA41710F0A41B839544
S1131D205051B9F7A05DAA3308F0A95DA1930097BB
S1131D3079F7B111B1931192CB010C949F0EDC0190
S1131D40FC01672F71917723E1F7329704C07C91EE
S1131D506D9370836291AE17BF07C8F30895F8942A
S1051D60FFCFAF
S1131D620A06060A060001B7035B005F000101B61A
S1131D7203C300C700FFFF3B383532010100FF02F5
S1131D820100FF040100FF0100FF000200FF000444
S1131D9200FF000800FF001000FF002000FF0040C9
S1131DA200FF00010200FF020200FF72077D075CD0
S1131DB207670700127A000100A086010097025209
S1131DC2656164696E67204E564D00576169746996
S1131DD26E6720666F720066697273742070726532
S1131DE273730057726974696E67204E564D0057BB
S1131DF27269746520616C6C20646F6E6500796F22
S1131E02752063616E20706F776572206F6666005D
S1131E1216012B092F0900010000010100094944A0
S1071E224C45000027
S9030000FC
